:020000040800F2
:10000000005000202D33000805320008113200088E
:10001000173200081D3200082332000800000000DB
:10002000000000000000000000000000293200086D
:100030003532000800000000413200084D3200084F
:1000400075330008753300087533000875330008F0
:1000500075330008753300087533000875330008E0
:1000600075330008753300087533000875330008D0
:1000700075330008753300087533000875330008C0
:1000800075330008753300087533000875330008B0
:1000900075330008753300087533000875330008A0
:1000A00075330008593200087533000875330008AD
:1000B0007533000875330008753300087533000880
:1000C0007533000875330008753300087533000870
:1000D0007533000875330008753300087533000860
:1000E0007533000875330008753300080000000000
:1000F0000000000000000000000000000000000000
:0C01000000000000000000005FF808F1A3
:10010C0010B5054C237833B9044B13B10448AFF345
:10011C0000800123237010BDD000002000000000DF
:10012C00003C000808B5034B1BB103490348AFF36F
:10013C00008008BD00000000D4000020003C000836
:10014C0080B500AF084B1B68074A43F010031360DF
:10015C00032000F057FC002000F008F802F0B8FF74
:10016C000023184680BD00BF0020024080B582B03D
:10017C0000AF7860124B1A68124B1B7819464FF47B
:10018C007A73B3FBF1F3B2FBF3F3184600F06FFC98
:10019C000346002B01D001230EE07B680F2B0AD8FD
:1001AC00002279684FF0FF3000F037FC064A7B687C
:1001BC001360002300E0012318460837BD4680BDBC
:1001CC0068000020040000200000002080B400AF74
:1001DC00054B1B781A46054B1B681344034A1360E6
:1001EC0000BFBD4680BC7047040000200801002001
:1001FC0080B400AF024B1B681846BD4680BC7047EC
:10020C000801002080B584B000AF7860FFF7F0FFE4
:10021C00B8607B68FB60FB68B3F1FF3F05D0094B0E
:10022C001B781A46FB681344FB6000BFFFF7E0FF26
:10023C000246BB68D31AFA689A42F7D800BF103747
:10024C00BD4680BD0400002080B586B000AF78604C
:10025C000023FB7500233B610023BB600023FB6084
:10026C007B68002B01D10123BEE07B689B68002BCF
:10027C007B689B6A002B09D17B680022DA627B6861
:10028C00002283F82420786802F054FF786800F08C
:10029C00B7FA0346FB757B689B6A03F01003002BCF
:1002AC0040F09980FB7D002B40F095807B689B6A29
:1002BC0023F4885323F0020343F002027B689A6212
:1002CC007B685A687B68DB691A437B68DB685B0078
:1002DC001343BA681343BB607B689B68B3F5807F9C
:1002EC0003D07B689B68012B02D14FF4807300E034
:1002FC0000233A6913433B617B685B69012B19D17D
:10030C007B68DB68002B09D17B689B69013B5A0336
:10031C003B69134343F400633B610BE07B689B6ACE
:10032C0043F020027B689A627B68DB6A43F001022F
:10033C007B68DA627B681B685B6823F469417B68C5
:10034C001B683A690A435A607B681B689A68284B99
:10035C0013407A681268B9680B4393607B689B689A
:10036C00B3F5807F03D07B689B68012B04D17B683D
:10037C001B69013B1B05FB607B681B68DB6A23F474
:10038C0070017B681B68FA680A43DA627B681B6839
:10039C009A68184B1340BA689A420BD17B680022BA
:1003AC00DA627B689B6A23F0030343F001027B68EB
:1003BC009A6218E07B689B6A23F0120343F01002E8
:1003CC007B689A627B68DB6A43F001027B68DA62C5
:1003DC000123FB7507E07B689B6A43F010027B6886
:1003EC009A620123FB75FB7D18461837BD4680BD0C
:1003FC00FDF7E1FFFE0E1FFF80B584B000AF786003
:10040C000023FB737B6893F82430012B01D102236A
:10041C0098E07B68012283F82420786800F09EF92C
:10042C000346FB73FB7B002B40F087807B689B6A49
:10043C0023F4407323F0010343F480727B689A62C7
:10044C007B681B68414A934205D1414B5B6803F4BE
:10045C007023002B15D17B689B6A23F480127B6878
:10046C009A627B681B685B6803F48063002B26D060
:10047C007B689B6A23F4405343F480527B689A62F6
:10048C001DE07B689B6A43F480127B689A627B68F0
:10049C001B682F4A934204D07B681B682B4A9342FB
:1004AC000DD12B4B5B6803F48063002B07D07B686A
:1004BC009B6A23F4405343F480527B689A627B68B6
:1004CC009B6A03F48053002B06D07B68DB6A23F015
:1004DC0006027B68DA6202E07B680022DA627B68E3
:1004EC00002283F824207B681B686FF002021A60DC
:1004FC007B681B689B6803F46023B3F5602F13D1F2
:10050C007B681B68114A934205D1114B5B6803F45D
:10051C007023002B08D17B681B689A687B681B686A
:10052C0042F4A0029A600CE07B681B689A687B68B6
:10053C001B6842F480129A6003E07B68002283F807
:10054C002420FB7B18461037BD4680BD0028014097
:10055C000024014080B483B000AF78607B681B68D6
:10056C00DB6C18460C37BD4680BC704780B485B038
:10057C0000AF786039600023FB730023BB607B689D
:10058C0093F82430012B01D10223DCE07B6801229B
:10059C0083F824203B685B68062B1CD87B681B689F
:1005AC00596B3B685A6813469B001344053B1F224A
:1005BC0002FA03F3DB4319403B6818683B685A683E
:1005CC0013469B001344053B00FA03F27B681B683F
:1005DC000A435A633CE03B685B680C2B1CD87B6875
:1005EC001B68196B3B685A6813469B001344233BEA
:1005FC001F2202FA03F3DB4319403B6818683B687F
:10060C005A6813469B001344233B00FA03F27B68A1
:10061C001B680A431A631BE07B681B68D96A3B683A
:10062C005A6813469B001344413B1F2202FA03F302
:10063C00DB4319403B6818683B685A6813469B00BB
:10064C001344413B00FA03F27B681B680A43DA62ED
:10065C003B681B68092B1CD97B681B68D9683B68F5
:10066C001A6813465B0013441E3B072202FA03F37D
:10067C00DB4319403B6898683B681A6813465B007B
:10068C0013441E3B00FA03F27B681B680A43DA60D2
:10069C0019E07B681B6819693B681A6813465B0094
:1006AC001344072202FA03F3DB4319403B689868B2
:1006BC003B681A6813465B00134400FA03F27B682C
:1006CC001B680A431A613B681B68102B03D03B68FC
:1006DC001B68112B32D17B681B681D4A934225D1B4
:1006EC007B681B689B6803F40003002B26D17B6896
:1006FC001B689A687B681B6842F400029A603B682E
:10070C001B68102B1AD1134B1B68134AA2FB032333
:10071C009A0C13469B0013445B00BB6002E0BB6861
:10072C00013BBB60BB68002BF9D107E07B689B6A7F
:10073C0043F020027B689A620123FB737B680022E2
:10074C0083F82420FB7B18461437BD4680BC7047C9
:10075C00002401406800002083DE1B4380B584B078
:10076C0000AF78600023FB600023BB607B681B68D4
:10077C009B6803F00103012B39D07B681B689A68D6
:10078C007B681B6842F001029A601B4B1B681B4A7A
:10079C00A2FB03239B0CBB6002E0BB68013BBB606C
:1007AC00BB68002BF9D1FFF723FDF86018E0FFF7C9
:1007BC001FFD0246FB68D31A022B11D97B689B6A7A
:1007CC0043F010027B689A627B68DB6A43F001029B
:1007DC007B68DA627B68002283F82420012307E01F
:1007EC007B681B689B6803F00103012BDFD100239E
:1007FC0018461037BD4680BD6800002083DE1B43C1
:10080C0080B584B000AF78600023FB607B681B6808
:10081C009B6803F00103012B27D17B681B689A6846
:10082C007B681B6822F001029A60FFF7E1FCF8601C
:10083C0014E0FFF7DDFC0246FB68D31A022B0DD93E
:10084C007B689B6A43F010027B689A627B68DB6A68
:10085C0043F001027B68DA62012307E07B681B68C6
:10086C009B6803F00103012BE3D0002318461037DB
:10087C00BD4680BD80B485B000AF78607B6803F066
:10088C000703FB600C4BDB68BB60BA684FF6FF03D9
:10089C001340BB60FB681A02BB68134343F0BF6391
:1008AC0043F40033BB60044ABB68D36000BF143709
:1008BC00BD4680BC704700BF00ED00E080B400AFC7
:1008CC00044BDB681B0A03F007031846BD4680BCCB
:1008DC00704700BF00ED00E080B483B000AF03466A
:1008EC00FB71FB7903F01F02064997F907305B098E
:1008FC00012000FA02F241F8232000BF0C37BD465C
:10090C0080BC704700E100E080B483B000AF0346C8
:10091C003960FB7197F90730002B0BDA3B68DAB2C0
:10092C000C49FB7903F00F03043B1201D2B20B44C8
:10093C001A7609E03B68DAB2074997F907301201D9
:10094C00D2B20B4483F8002300BF0C37BD4680BCE9
:10095C00704700BF00ED00E000E100E080B489B01A
:10096C0000AFF860B9607A60FB6803F00703FB61C5
:10097C00FB69C3F10703042B28BF0423BB61FB698C
:10098C000433062B02D9FB69033B00E000237B6197
:10099C004FF0FF32BB6902FA03F3DA43BB681A402B
:1009AC007B699A404FF0FF317B6901FA03F3D9431D
:1009BC007B680B40134318462437BD4680BC7047F8
:1009CC0080B582B000AF78607B68013BB3F1807F6B
:1009DC0001D301230FE00A4A7B68013B53600F21CE
:1009EC004FF0FF30FFF790FF054B00229A60044B4D
:1009FC0007221A60002318460837BD4680BD00BF89
:100A0C0010E000E080B582B000AF78607868FFF746
:100A1C0031FF00BF0837BD4680BD80B586B000AF42
:100A2C000346B9607A60FB7300237B61FFF746FFD6
:100A3C0078617A68B9687869FFF790FF024697F990
:100A4C000F3011461846FFF75FFF00BF1837BD4641
:100A5C0080BD80B582B000AF0346FB7197F90730BB
:100A6C001846FFF739FF00BF0837BD4680BD80B57B
:100A7C0082B000AF78607868FFF7A2FF0346184693
:100A8C000837BD4680BD000080B48BB000AF7860E5
:100A9C0039600023FB610023BB6100237B610023D1
:100AAC003B6200233B6100237B6227E101227B6ACE
:100ABC0002FA03F3FB613B681B68FA691340BB61E4
:100ACC00BA69FB699A4240F016813B685B68122B4D
:100ADC0034D0122B0DD8022B2BD0022B04D8002B88
:100AEC0031D0012B1CD048E0032B43D0112B1BD051
:100AFC0043E0874A934226D0854A934206D8854ADA
:100B0C00934220D0844A93421DD036E0834A9342CC
:100B1C0019D0834A934216D0824A934213D02CE0C8
:100B2C003B68DB683B6228E03B68DB6804333B6274
:100B3C0023E03B68DB6808333B621EE03B68DB6804
:100B4C000C333B6219E03B689B68002B02D10423F9
:100B5C003B6212E03B689B68012B05D108233B628A
:100B6C007B68FA691A6108E008233B627B68FA69C2
:100B7C005A6102E000233B6200BFBB69FF2B01D826
:100B8C007B6801E07B680433FB60BB69FF2B02D8F8
:100B9C007B6A9B0002E07B6A083B9B003B61FB6825
:100BAC001A680F213B6901FA03F3DB431A40396AD7
:100BBC003B6901FA03F31A43FB681A603B685B68F4
:100BCC0003F08053002B00F09680574B9B69564ADC
:100BDC0043F001039361544B9B6903F00103BB6029
:100BEC00BB68524A7B6A9B08023352F823307B6104
:100BFC007B6A03F003039B000F2202FA03F3DB432F
:100C0C007A6913407B617B68494A934213D07B68B5
:100C1C00484A93420DD07B68474A934207D07B6881
:100C2C00464A934201D1032306E0042304E0022345
:100C3C0002E0012300E000237A6A02F00302920032
:100C4C0093407A6913437B6138497B6A9B08023372
:100C5C007A6941F823203B685B6803F48033002BEE
:100C6C0006D0374B1A683649BB6913430B6006E054
:100C7C00334B1A68BB69DB43314913400B603B684B
:100C8C005B6803F40033002B06D02D4B5A682C49BB
:100C9C00BB6913434B6006E0294B5A68BB69DB43C5
:100CAC00274913404B603B685B6803F48013002BAF
:100CBC0006D0234B9A682249BB6913438B6006E02C
:100CCC001F4B9A68BB69DB431D4913408B603B6823
:100CDC005B6803F40013002B06D0194BDA68184933
:100CEC00BB691343CB6006E0154BDA68BB69DB4389
:100CFC0013491340CB607B6A01337B627B6A0F2BF9
:100D0C007FF6D4AE00BF2C37BD4680BC704700BF09
:100D1C000000211000001110000012100000311012
:100D2C0000003210000022100010024000000140B0
:100D3C0000080140000C014000100140001401406B
:100D4C000004014080B485B000AF78600B467B8016
:100D5C007B689A687B881340002B02D00123FB73BD
:100D6C0001E00023FB73FB7B18461437BD4680BCA7
:100D7C00704780B483B000AF78600B467B8013461D
:100D8C007B707B78002B03D07A887B681A6103E038
:100D9C007B881A047B681A6100BF0C37BD4680BC87
:100DAC00704780B483B000AF78600B467B807B6863
:100DBC00DA687B885A407B68DA6000BF0C37BD4626
:100DCC0080BC704780B586B000AF786000233B6173
:100DDC007B681B6803F00103002B00F08780924BAB
:100DEC005B6803F00C03042B0CD08F4B5B6803F097
:100DFC000C03082B12D18C4B5B6803F48033B3F5D6
:100E0C00803F0BD1884B1B6803F40033002B6CD054
:100E1C007B685B68002B68D101232DE27B685B68E3
:100E2C00B3F5803F06D1804B1B687F4A43F4803377
:100E3C0013602EE07B685B68002B0CD17A4B1B682F
:100E4C00794A23F480331360774B1B68764A23F47A
:100E5C00802313601DE07B685B68B3F5A02F0CD179
:100E6C00714B1B68704A43F4802313606E4B1B68F4
:100E7C006D4A43F4803313600BE06B4B1B686A4A7A
:100E8C0023F480331360684B1B68674A23F4802378
:100E9C0013607B685B68002B13D0FFF7A9F93861EE
:100EAC0008E0FFF7A5F902463B69D31A642B01D978
:100EBC000323E1E15C4B1B6803F40033002BF0D0FF
:100ECC0014E0FFF795F9386108E0FFF791F9024655
:100EDC003B69D31A642B01D90323CDE1524B1B6818
:100EEC0003F40033002BF0D100E000BF7B681B68DB
:100EFC0003F00203002B63D04B4B5B6803F00C0335
:100F0C00002B0BD0484B5B6803F00C03082B1CD157
:100F1C00454B5B6803F48033002B16D1424B1B68A6
:100F2C0003F00203002B05D07B681B69012B01D059
:100F3C000123A1E13C4B1B6823F0F8027B685B6941
:100F4C00DB00394913430B603AE07B681B69002BCB
:100F5C0020D0364B01221A60FFF74AF9386108E0BD
:100F6C00FFF746F902463B69D31A022B01D903233A
:100F7C0082E12D4B1B6803F00203002BF0D02A4BAF
:100F8C001B6823F0F8027B685B69DB00264913437E
:100F9C000B6015E0254B00221A60FFF729F9386128
:100FAC0008E0FFF725F902463B69D31A022B01D959
:100FBC00032361E11C4B1B6803F00203002BF0D1EF
:100FCC007B681B6803F00803002B39D07B689B6996
:100FDC00002B19D0164B01221A60FFF709F9386162
:100FEC0008E0FFF705F902463B69D31A022B01D939
:100FFC00032341E10C4B5B6A03F00203002BF0D09E
:10100C00012000F0B1FA1BE0094B00221A60FFF737
:10101C00EFF838610EE0FFF7EBF802463B69D31AA4
:10102C00022B07D9032327E10010024000004242A3
:10103C0080044242924B5B6A03F00203002BEAD11C
:10104C007B681B6803F00403002B00F0A6800023D0
:10105C00FB758B4BDB6903F08053002B0DD1884B58
:10106C00DB69874A43F08053D361854BDB6903F01E
:10107C008053FB60FB680123FB75824B1B6803F4F8
:10108C008073002B18D17F4B1B687E4A43F480730E
:10109C001360FFF7ADF8386108E0FFF7A9F80246D6
:1010AC003B69D31A642B01D90323E5E0754B1B680C
:1010BC0003F48073002BF0D07B68DB68012B06D126
:1010CC006F4B1B6A6E4A43F0010313622DE07B6881
:1010DC00DB68002B0CD16A4B1B6A694A23F00103B5
:1010EC001362674B1B6A664A23F0040313621CE00D
:1010FC007B68DB68052B0CD1614B1B6A604A43F0A3
:10110C00040313625E4B1B6A5D4A43F001031362D6
:10111C000BE05B4B1B6A5A4A23F001031362584BDA
:10112C001B6A574A23F0040313627B68DB68002BAD
:10113C0015D0FFF75DF838610AE0FFF759F8024661
:10114C003B69D31A41F28832934201D9032393E0CD
:10115C004B4B1B6A03F00203002BEED014E0FFF79D
:10116C0047F838610AE0FFF743F802463B69D31AA7
:10117C0041F28832934201D903237DE0404B1B6A34
:10118C0003F00203002BEED1FB7D012B05D13C4B70
:10119C00DB693B4A23F08053D3617B68DB69002B0E
:1011AC0069D0374B5B6803F00C03082B61D07B686C
:1011BC00DB69022B46D1344B00221A60FFF718F87A
:1011CC00386108E0FFF714F802463B69D31A022B8A
:1011DC0001D9032350E02A4B1B6803F00073002B4A
:1011EC00F0D17B681B6AB3F5803F08D1244B5B6858
:1011FC0023F400327B689B68214913434B60204BDE
:10120C005B6823F474127B68196A7B685B6A0B4316
:10121C001B4913434B601C4B01221A60FEF7E8FF7D
:10122C00386108E0FEF7E4FF02463B69D31A022B53
:10123C0001D9032320E0124B1B6803F00073002B31
:10124C00F0D018E0104B00221A60FEF7D1FF386185
:10125C0008E0FEF7CDFF02463B69D31A022B01D9F9
:10126C00032309E0064B1B6803F00073002BF0D13D
:10127C0001E0012300E0002318461837BD4680BD6D
:10128C0000100240007000406000424280B584B003
:10129C0000AF786039600023FB607E4B1B6803F065
:1012AC0007033A689A4210D97A4B1B6823F007025D
:1012BC0078493B6813430B60764B1B6803F00703BC
:1012CC003A689A4201D00123E0E07B681B6803F086
:1012DC000203002B20D07B681B6803F00403002B57
:1012EC0005D06D4B5B686C4A43F4E06353607B68DC
:1012FC001B6803F00803002B05D0674B5B68664A3C
:10130C0043F460535360644B5B6823F0F0027B68DA
:10131C009B68614913434B607B681B6803F00103B6
:10132C00002B6AD07B685B68012B07D15A4B1B687A
:10133C0003F40033002B15D10123A7E07B685B6815
:10134C00022B07D1544B1B6803F00073002B09D1FF
:10135C0001239BE0504B1B6803F00203002B01D1CF
:10136C00012393E04C4B5B6823F003027B685B68C2
:10137C00494913434B60FEF73BFFF8607B685B68A1
:10138C00012B12D10AE0FEF733FF0246FB68D31A99
:10139C0041F28832934201D9032377E03E4B5B68DC
:1013AC0003F00C03042BEED127E07B685B68022B67
:1013BC001DD10AE0FEF71CFF0246FB68D31A41F26E
:1013CC008832934201D9032360E0334B5B6803F00E
:1013DC000C03082BEED110E0FEF70AFF0246FB6867
:1013EC00D31A41F28832934201D903234EE02A4B9F
:1013FC005B6803F00C03002BEED1264B1B6803F04B
:10140C0007033A689A4210D2224B1B6823F007025A
:10141C0020493B6813430B601E4B1B6803F007030A
:10142C003A689A4201D0012330E07B681B6803F0D4
:10143C000403002B08D0184B5B6823F4E0627B6834
:10144C00DB68154913434B607B681B6803F008038A
:10145C00002B09D0104B5B6823F460527B681B692E
:10146C00DB000D4913434B6000F01CF801460A4B9E
:10147C005B681B0903F00F03084AD35C21FA03F3E2
:10148C00074A13600020FEF771FE00231846103740
:10149C00BD4680BD0020024000100240403E0008C6
:1014AC006800002090B48AB000AF2A4B3C1D0FCBD3
:1014BC0084E80F00284B1B883B800023FB61002332
:1014CC00BB6100237B6200237B6100233B62234BC7
:1014DC005B68FB61FB6903F00C03042B02D0082B47
:1014EC0003D02DE01E4B3B622DE0FB699B0C03F0FF
:1014FC000F0307F12802134413F8243C7B61FB69AA
:10150C0003F48033002B13D0144B5B685B0C03F09B
:10151C00010307F12802134413F8283CBB617B69D3
:10152C000F4A02FB03F2BB69B2FBF3F37B6204E0EC
:10153C007B690C4A02FB03F37B627B6A3B6202E031
:10154C00074B3B6200BF3B6A18462837BD4690BC30
:10155C00704700BF183C0008283C000800100240EF
:10156C0000127A0000093D0080B485B000AF7860AD
:10157C000A4B1B680A4AA2FB03235B0A7A6802FB2C
:10158C0003F3FB6000BFFB685A1EFA60002BF9D115
:10159C0000BF1437BD4680BC704700BF68000020F8
:1015AC00D34D621080B586B000AF786000233B61EC
:1015BC000023FB607B681B6803F00103002B7DD0CC
:1015CC000023FB754F4BDB6903F08053002B0DD1CF
:1015DC004C4BDB694B4A43F08053D361494BDB697D
:1015EC0003F08053BB60BB680123FB75464B1B6843
:1015FC0003F48073002B18D1434B1B68424A43F40D
:10160C0080731360FEF7F4FD386108E0FEF7F0FD1F
:10161C0002463B69D31A642B01D903236DE03A4B84
:10162C001B6803F48073002BF0D0364B1B6A03F459
:10163C004073FB60FB68002B2ED07B685B6803F467
:10164C004073FA689A4227D02E4B1B6A23F44073DE
:10165C00FB602E4B01221A602C4B00221A60294A87
:10166C00FB681362FB6803F00103002B14D0FEF738
:10167C00BFFD38610AE0FEF7BBFD02463B69D31A99
:10168C0041F28832934201D9032336E01D4B1B6A89
:10169C0003F00203002BEED01A4B1B6A23F44072AA
:1016AC007B685B68174913430B62FB7D012B05D1EB
:1016BC00144BDB69134A23F08053D3617B681B689E
:1016CC0003F00203002B08D00E4B5B6823F440425E
:1016DC007B689B680B4913434B607B681B6803F06A
:1016EC001003002B08D0074B5B6823F480027B6847
:1016FC00DB68044913434B60002318461837BD467A
:10170C0080BD00BF00100240007000404004424207
:10171C0080B582B000AF78607B68002B01D10123CB
:10172C001DE07B6893F83D30DBB2002B06D17B6863
:10173C00002283F83C20786801F038FD7B68022297
:10174C0083F83D207B681A687B6804331946104681
:10175C0000F02AFA7B68012283F83D20002318460A
:10176C000837BD4680BD80B483B000AF78607B681D
:10177C001B68DA687B681B6842F00102DA607B68E0
:10178C001B681A687B681B6842F001021A60002310
:10179C0018460C37BD4680BC704780B582B000AF90
:1017AC0078607B681B681B6903F00203022B22D153
:1017BC007B681B68DB6803F00203022B1BD17B6880
:1017CC001B686FF002021A617B6801221A777B6832
:1017DC001B689B6903F00303002B03D0786800F0AF
:1017EC00C8F905E0786800F0BBF9786800F0CAF930
:1017FC007B6800221A777B681B681B6903F0040363
:10180C00042B22D17B681B68DB6803F00403042BD8
:10181C001BD17B681B686FF004021A617B68022283
:10182C001A777B681B689B6903F44073002B03D009
:10183C00786800F09EF905E0786800F091F9786816
:10184C0000F0A0F97B6800221A777B681B681B6983
:10185C0003F00803082B22D17B681B68DB6803F0BC
:10186C000803082B1BD17B681B686FF008021A61F8
:10187C007B6804221A777B681B68DB6903F003031F
:10188C00002B03D0786800F074F905E0786800F05C
:10189C0067F9786800F076F97B6800221A777B6824
:1018AC001B681B6903F01003102B22D17B681B688B
:1018BC00DB6803F01003102B1BD17B681B686FF0E7
:1018CC0010021A617B6808221A777B681B68DB6937
:1018DC0003F44073002B03D0786800F04AF905E05C
:1018EC00786800F03DF9786800F04CF97B680022CC
:1018FC001A777B681B681B6903F00103012B0ED15F
:10190C007B681B68DB6803F00103012B07D17B6844
:10191C001B686FF001021A61786801F061FA7B684C
:10192C001B681B6903F08003802B0ED17B681B683E
:10193C00DB6803F08003802B07D17B681B686FF09A
:10194C0080021A61786800F087FA7B681B681B6953
:10195C0003F04003402B0ED17B681B68DB6803F05F
:10196C004003402B07D17B681B686FF040021A6163
:10197C00786800F010F97B681B681B6903F0200382
:10198C00202B0ED17B681B68DB6803F02003202B17
:10199C0007D17B681B686FF020021A61786800F031
:1019AC0052FA00BF0837BD4680BD80B584B000AF89
:1019BC00786039600023FB607B6893F83C30012B26
:1019CC0001D10223C8E07B68012283F83C207B68AC
:1019DC00022283F83D207B681B689B68FB60FB68D8
:1019EC0023F07703FB60FB6823F47F43FB607B6889
:1019FC001B68FA689A603B681B68402B77D0402BB9
:101A0C000ED8102B00F08A80102B02D8002B7ED021
:101A1C0099E0202B00F08980302B00F08D8092E033
:101A2C00702B16D0702B04D8502B40D0602B4ED07E
:101A3C0089E0B3F5805F03D0B3F5005F24D082E07A
:101A4C007B681B689A687B681B6822F007029A60A7
:101A5C0079E07B6818683B6899683B685A683B6812
:101A6C00DB6800F08BF97B681B689B68FB60FB688C
:101A7C0023F07703FB60FB6843F07703FB607B6824
:101A8C001B68FA689A605EE07B6818683B68996826
:101A9C003B685A683B68DB6800F070F97B681B6830
:101AAC009A687B681B6842F480429A604BE07B68C2
:101ABC0018683B6859683B68DB681A4600F0DAF82E
:101ACC007B681B685021184600F039F93BE07B68B5
:101ADC0018683B6859683B68DB681A4600F0FCF8EC
:101AEC007B681B686021184600F029F92BE07B68A5
:101AFC0018683B6859683B68DB681A4600F0BAF80E
:101B0C007B681B684021184600F019F91BE07B68C4
:101B1C001B680021184600F012F914E07B681B6862
:101B2C001021184600F00BF90DE07B681B68202192
:101B3C00184600F004F906E07B681B683021184653
:101B4C0000F0FDF800BF7B68012283F83D207B6824
:101B5C00002283F83C20002318461037BD4680BD78
:101B6C0080B483B000AF786000BF0C37BD4680BC3A
:101B7C00704780B483B000AF786000BF0C37BD46AF
:101B8C0080BC704780B483B000AF786000BF0C3766
:101B9C00BD4680BC704780B483B000AF786000BF96
:101BAC000C37BD4680BC704780B485B000AF786000
:101BBC0039600023FB607B681B68FB607B682A4AEA
:101BCC0093420BD07B68B3F1804F07D07B68274AD8
:101BDC00934203D07B68264A934208D1FB6823F0DA
:101BEC007003FB603B685B68FA681343FB607B68BF
:101BFC001D4A93420BD07B68B3F1804F07D07B68B2
:101C0C001A4A934203D07B68194A934208D1FB6865
:101C1C0023F44073FB603B68DB68FA681343FB609A
:101C2C00FB6823F08003FB603B685B69FA68134335
:101C3C00FB607B68FA681A603B689A687B68DA62BA
:101C4C003B681A687B689A627B68074A934203D1A7
:101C5C003B681A697B681A637B6801225A6100BF72
:101C6C001437BD4680BC7047002C01400004004076
:101C7C000008004080B487B000AFF860B9607A60AB
:101C8C0000237B6100233B61FB681B6A3B61FB68A3
:101C9C001B6A23F00102FB681A62FB689B697B617B
:101CAC007B6923F0F0037B617B681B017A6913432A
:101CBC007B613B6923F00A033B613A69BB681343C0
:101CCC003B61FB687A699A61FB683A691A6200BFEA
:101CDC001C37BD4680BC704780B487B000AFF8603D
:101CEC00B9607A6000237B6100233B61FB681B6A4F
:101CFC0023F01002FB681A62FB689B697B61FB682E
:101D0C001B6A3B617B6923F470437B617B681B031B
:101D1C007A6913437B613B6923F0A0033B61BB6889
:101D2C001B013A6913433B61FB687A699A61FB6852
:101D3C003A691A6200BF1C37BD4680BC704780B43C
:101D4C0085B000AF78600B467B800023FB607B681E
:101D5C009B68FB60FB6823F07003FB607B8843F09F
:101D6C0007039BB21A46FB681343FB607B68FA6857
:101D7C009A6000BF1437BD4680BC704780B487B0F2
:101D8C0000AFF860B9607A603B6000237B61FB6850
:101D9C009B687B617B6923F47F437B613B681A0200
:101DAC007B681A43BB6813437A6913437B61FB68F6
:101DBC007A699A6000BF1C37BD4680BC704780B4FE
:101DCC0083B000AF786039607B6893F83C30012BAE
:101DDC0001D1022332E07B68012283F83C207B682E
:101DEC00022283F83D207B681B685A687B681B685D
:101DFC0022F070025A607B681B6859683B681A684D
:101E0C007B681B680A435A607B681B689A687B680E
:101E1C001B6822F080029A607B681B6899683B689B
:101E2C005A687B681B680A439A607B68012283F8B6
:101E3C003D207B68002283F83C20002318460C3799
:101E4C00BD4680BC704780B483B000AF786000BFE3
:101E5C000C37BD4680BC704780B483B000AF78604F
:101E6C0000BF0C37BD4680BC704780B500AF012069
:101E7C00FEF7C8F900BF80BD80B582B000AF034645
:101E8C00FB71574B04225A61554B02225A61544B39
:101E9C0010225A61524B20225A61514B40225A61F6
:101EAC004F4B80225A61FFF7E0FF4D4BDB684C4AE9
:101EBC0043F00203D360FB7903F01003002B03D033
:101ECC00474B10221A6103E0454B4FF480121A6104
:101EDC00FB7903F02003002B03D0414B20221A6125
:101EEC0003E03F4B4FF400121A61FB7903F04003FF
:101EFC00002B03D03A4B40221A6103E0384B4FF4CD
:101F0C0080021A6197F90730002B03DA344B8022D8
:101F1C001A6103E0324B4FF400021A61FFF7A5FF80
:101F2C002F4B02225A612E4B10225A612C4B20222D
:101F3C005A612B4B40225A61294B80225A61FFF780
:101F4C0094FF274BDB68264A43F00203D360FB79EE
:101F5C0003F00103002B03D0214B10221A6103E084
:101F6C001F4B4FF480121A61FB7903F00203002B14
:101F7C0003D01B4B20221A6103E0194B4FF40012C3
:101F8C001A61FB7903F00403002B03D0144B40229D
:101F9C001A6103E0124B4FF480021A61FB7903F0D3
:101FAC000803002B03D00E4B80221A6103E00C4B6C
:101FBC004FF400021A61FFF758FF094B02225A61D5
:101FCC00074B10225A61064B20225A61044B4022C7
:101FDC005A61034B80225A6100BF0837BD4680BD51
:101FEC000008014080B582B000AF0346FB71594B2D
:101FFC00DB68584A43F00403D360564B02225A6103
:10200C00544B10225A61534B20225A61514B40229F
:10201C005A61504B80225A61FFF727FF4D4BDB680A
:10202C004C4A43F00203D360FB7903F01003002BFE
:10203C0003D0484B10221A6103E0464B4FF4801238
:10204C001A61FB7903F02003002B03D0414B2022B3
:10205C001A6103E03F4B4FF400121A61FB7903F055
:10206C004003002B03D03B4B40221A6103E0394B59
:10207C004FF480021A6197F90730002B03DA354BC5
:10208C0080221A6103E0334B4FF400021A61FFF710
:10209C00ECFE304B02225A612E4B10225A612D4B12
:1020AC0020225A612B4B40225A612A4B80225A61C2
:1020BC00FFF7DBFE274BDB68264A43F00203D360B5
:1020CC00FB7903F00103002B03D0224B10221A6181
:1020DC0003E0204B4FF480121A61FB7903F00203EA
:1020EC00002B03D01B4B20221A6103E0194B4FF439
:1020FC0000121A61FB7903F00403002B03D0154B7B
:10210C0040221A6103E0134B4FF480021A61FB79F1
:10211C0003F00803002B03D00E4B80221A6103E05E
:10212C000C4B4FF400021A61FFF79FFE094B022281
:10213C005A61084B10225A61064B20225A61054BFA
:10214C0040225A61034B80225A6100BF0837BD46BA
:10215C0080BD00BF0008014080B582B000AF786040
:10216C0006E07B685A1C7A601B781846FFF73AFF2A
:10217C007B681B78002BF4D1FFF777FE00BF083784
:10218C00BD4680BD80B500AF0120FFF775FE022073
:10219C00FFF772FE2820FFF76FFE0C20FFF76CFE96
:1021AC008020FFF769FE00BF80BD80B582B000AF14
:1021BC0003460A46FB711346BB71FB79012B06D112
:1021CC00BB797F33DBB21846FFF756FE08E0FB798C
:1021DC00022B05D1BB79413BDBB21846FFF74CFE15
:1021EC0000BF0837BD4680BD80B582B000AF034646
:1021FC003A60FB710B46BB71BA79FB7911461846F4
:10220C00FFF7D3FF3868FFF7A7FF00BF0837BD46BD
:10221C0080BD000080B582B000AF0123FB710023AC
:10222C00BB71FDF78DFF00F0F1FD00F0DBFE00F05F
:10223C0049FE00F085FEBE48FFF795FAFFF7A2FFB6
:10224C00BC48FEF7D9F83220FDF7DCFFBA4A012171
:10225C000120FFF7C9FF4FF4FA70FDF7D3FF0220FE
:10226C00FDF7D0FF4FF40041B448FEF76BFD034679
:10227C00002B16D0FB790133FB71FB79072B01D1B5
:10228C000623FB71FB79172B01D11623FB71FB790C
:10229C00342B01D13323FB71FB79562B01D1552300
:1022AC00FB714FF40061A548FEF74CFD0346002B73
:1022BC0016D0FB79013BFB71FB79002B01D101237B
:1022CC00FB71FB79132B01D11423FB71FB79312B9F
:1022DC0001D13223FB71FB794F2B01D15023FB71C0
:1022EC004FF480619548FEF72DFD0346002B0ED070
:1022FC00FB79012B01D11423FB71FB79022B01D14A
:10230C003223FB71FB79032B01D15023FB71FB7939
:10231C00002B01D10123FB71FB79012B09D1884AD8
:10232C0001210120FFF760FF864A01210220FFF7FF
:10233C005BFFFB79022B09D1834A01210120FFF7B6
:10234C0053FF824A01210220FFF74EFFFB79032B3A
:10235C0009D17F4A01210120FFF746FF7D4A012167
:10236C000220FFF741FFFB79042B09D17A4A0121A6
:10237C000120FFF739FF794A01210220FFF734FFD2
:10238C00FB79052B09D1764A01210120FFF72CFF9F
:10239C00744A01210220FFF727FFFB79062B09D194
:1023AC00714A01210120FFF71FFF704A0121022011
:1023BC00FFF71AFFFB79142B17D16D4A012101206D
:1023CC00FFF712FF6B4A01210220FFF70DFF4FF4BC
:1023DC0080615A48FEF7B6FC0346002B05D001225B
:1023EC004FF400715548FEF7C4FCFB79152B19D13D
:1023FC00614A01210120FFF7F7FE604A012102200A
:10240C00FFF7F2FE4FF480614C48FEF79BFC03464D
:10241C00002B07D000224FF400714848FEF7A9FCAE
:10242C000023BB71FB79162B13D1554A01210120D6
:10243C00FFF7DAFE534A01210220FFF7D5FE4FF4D5
:10244C0080613E48FEF77EFC0346002B01D0002342
:10245C00FB71BB79022B1FD1FDF7CAFE02464A4B1A
:10246C001B689A4218D9FDF7C3FE0246474B1B68FE
:10247C001344454A13604FF400713048FEF762FC78
:10248C000346002B0CBF01230023DBB21A464FF48A
:10249C0000712A48FEF76DFCBB79032B1FD1FDF7A9
:1024AC00A7FE0246384B1B689A4218D9FDF7A0FECE
:1024BC000246374B1B881344334A13604FF40071A8
:1024CC001E48FEF73FFC0346002B0CBF01230023E4
:1024DC00DBB21A464FF400711848FEF74AFCFB7940
:1024EC00322B40F083801348FEF734F80246274B1A
:1024FC001A60264B1B681A462649274800F068FFCD
:10250C00264A01210120FFF76FFE234A0C210120EE
:10251C00FFF76AFE224A01210220FFF765FE4FF405
:10252C0080610648FEF70EFC0346002B5CD039E0B8
:10253C0048010020180100202C3C00080008014034
:10254C003C3C0008503C0008643C0008783C000807
:10255C008C3C0008A03C0008B43C0008C83C0008B7
:10256C00DC3C0008F03C0008043D0008183D000865
:10257C002C3D0008403D0008543D0008683D000813
:10258C007C3D0008903D0008F4000020EC00002089
:10259C00F8000020A43D000808000020AC3D000815
:1025AC00C03D00080123BB71FDF722FE02468F4B94
:1025BC001B689A4218D9FDF71BFE02468C4B1B6810
:1025CC0013448A4A13604FF400718A48FEF7BAFB31
:1025DC000346002B0CBF01230023DBB21A464FF439
:1025EC0000718448FEF7C5FB0223BB71FB79332BCA
:1025FC001FD17F4B1B681A467F49804800F0E8FECC
:10260C007F4A01210120FFF7EFFD7C4A0C210120BC
:10261C00FFF7EAFD7B4A01210220FFF7E5FD4FF4AD
:10262C0080617448FEF78EFB0346002B01D000231B
:10263C00FB71FB79502B1BD17348FDF78BFF0246C6
:10264C006B4B1A606A4B1B681A466B496B4800F05F
:10265C00BFFE6E4A01210120FFF7C6FD6C4A0B211B
:10266C000220FFF7C1FD6B4A01210220FFF7BCFDE0
:10267C00FB79512B40F0DB8000224FF400715D4858
:10268C00FEF777FB0023BB715F48FDF763FF024643
:10269C00574B1A60564B1B68B3F5C87F05D2544B89
:1026AC001B68002B01D000237B715B4B1B68B3F5BF
:1026BC00C87F06D94E4B1B68B3F5487F01D2012366
:1026CC007B714B4B1B68B3F5487F06D9484B1B6895
:1026DC00B3F5966F01D202237B71454B1B68B3F5A2
:1026EC00966F06D9424B1B68B3F5C86F01D2032312
:1026FC007B713F4B1B68B3F5C86F06D93C4B1B680D
:10270C00B3F5FA6F01D204237B71394B1B68B3F517
:10271C00FA6F06D9364B1B68B3F5166F01D2052339
:10272C007B71334B1B68B3F5166F06D9304B1B68A6
:10273C00B3F52F6F01D206237B712D4B1B68B3F5BC
:10274C002F6F06D92A4B1B68B3F5486F01D20723AC
:10275C007B71274B1B68B3F5486F06D9244B1B685C
:10276C00B3F5616F01D208237B71214B1B68B3F564
:10277C00616F07D91E4B1B6841F26702934201D867
:10278C0009237B717B791A462449254800F020FEE9
:10279C007B799BB21A465201D21A92001344DB0089
:1027AC009AB2204BDA80194A01210120FFF71CFD57
:1027BC001B4A0B210220FFF717FD1B4A01210220A7
:1027CC00FFF712FD4FF400410A48FEF7BBFA03462F
:1027DC00002B08D14FF400610648FEF7B3FA03460C
:1027EC00002B23D150E700BF21E000BFF4000020F4
:1027FC00EC00002000080140A43D00080800002067
:10280C00D43D0008E83D000818010020FC3D0008FC
:10281C0058000020103E0008F0000020143E000874
:10282C00180000200C010020183E000800BFFB79A6
:10283C00522B40F0CC805C48FDF78CFE02465B4B83
:10284C001A605A4B1B68B3F5C87F05D2574B1B68EF
:10285C00002B01D000233B71544B1B68B3F5C87F90
:10286C0006D9524B1B68B3F5487F01D201233B714B
:10287C004E4B1B68B3F5487F06D94C4B1B68B3F520
:10288C00966F01D202233B71484B1B68B3F5966FD0
:10289C0006D9464B1B68B3F5C86F01D203233B71B5
:1028AC00424B1B68B3F5C86F06D9404B1B68B3F598
:1028BC00FA6F01D204233B713C4B1B68B3F5FA6FE2
:1028CC0006D93A4B1B68B3F5166F01D205233B7141
:1028DC00364B1B68B3F5166F06D9344B1B68B3F532
:1028EC002F6F01D206233B71304B1B68B3F52F6F52
:1028FC0006D92E4B1B68B3F5486F01D207233B71E9
:10290C002A4B1B68B3F5486F06D9284B1B68B3F5E7
:10291C00616F01D208233B71244B1B68B3F5616FC7
:10292C0007D9224B1B6841F26702934201D8092355
:10293C003B713B791A461E491E4800F049FD3B7914
:10294C009BB21A46920013441A4691001A460B4643
:10295C0013449B009AB2184B9A80184A0B21022000
:10296C00FFF742FC164A01210120FFF73DFC114AFA
:10297C000C210220FFF738FC124A01210220FFF73C
:10298C0033FC4FF400411048FEF7DCF90346002BF2
:10299C0008D14FF400610C48FEF7D4F90346002B24
:1029AC0014D148E700BF12E018010020EC00002011
:1029BC00143E0008280000200C0100201800002004
:1029CC00FC3D0008183E00080008014000BFFB79E0
:1029DC00532B40F0CE805C48FDF7BCFD02465B4BB0
:1029EC001A605A4B1B68B3F5C87F05D2574B1B684E
:1029FC00002B01D00023FB70544B1B68B3F5C87F30
:102A0C0006D9524B1B68B3F5487F01D20123FB70EA
:102A1C004E4B1B68B3F5487F06D94C4B1B68B3F57E
:102A2C00966F01D20223FB70484B1B68B3F5966F6F
:102A3C0006D9464B1B68B3F5C86F01D20323FB7054
:102A4C00424B1B68B3F5C86F06D9404B1B68B3F5F6
:102A5C00FA6F01D20423FB703C4B1B68B3F5FA6F81
:102A6C0006D93A4B1B68B3F5166F01D20523FB70E0
:102A7C00364B1B68B3F5166F06D9344B1B68B3F590
:102A8C002F6F01D20623FB70304B1B68B3F52F6FF1
:102A9C0006D92E4B1B68B3F5486F01D20723FB7088
:102AAC002A4B1B68B3F5486F06D9284B1B68B3F546
:102ABC00616F01D20823FB70244B1B68B3F5616F67
:102ACC0007D9224B1B6841F26702934201D80923B4
:102ADC00FB70FB781A461E491E4800F079FCFB7807
:102AEC009BB21A46920013445B009AB21A4B5A805E
:102AFC001A4A0B210220FFF777FB194A0C210220FE
:102B0C00FFF772FB174A01210120FFF76DFB114AF9
:102B1C000D210220FFF768FB134A01210220FFF769
:102B2C0063FB4FF400411148FEF70CF90346002BF0
:102B3C0008D14FF400610D48FEF704F90346002B51
:102B4C0016D148E700BF14E018010020EC0000206B
:102B5C00143E0008380000200C0100201800002052
:102B6C0028000020FC3D0008243E0008000801401D
:102B7C0000BFFB79542B40F0BA808948FDF7EAFC82
:102B8C000246884B1A60874B1B68B3F5C87F05D289
:102B9C00844B1B68002B01D00023BB70814B1B683E
:102BAC00B3F5C87F06D97F4B1B68B3F5487F01D2BC
:102BBC000123BB707B4B1B68B3F5487F06D9794B5F
:102BCC001B68B3F5966F01D20223BB70754B1B6863
:102BDC00B3F5966F06D9734B1B68B3F5C86F01D26A
:102BEC000323BB706F4B1B68B3F5C86F06D96D4BD5
:102BFC001B68B3F5FA6F01D20423BB70694B1B68D9
:102C0C00B3F5FA6F06D9674B1B68B3F5166F01D293
:102C1C000523BB70634B1B68B3F5166F06D9614B6C
:102C2C001B68B3F52F6F01D20623BB705D4B1B687D
:102C3C00B3F52F6F06D95B4B1B68B3F5486F01D208
:102C4C000723BB70574B1B68B3F5486F06D9554B20
:102C5C001B68B3F5616F01D20823BB70514B1B6825
:102C6C00B3F5616F07D94F4B1B6841F26702934272
:102C7C0001D80923BB70BB781A464B494B4800F06E
:102C8C00A7FBBB789AB24A4B1A804A4A0B21022006
:102C9C00FFF7AAFA484A0C210220FFF7A5FA474A87
:102CAC000D210220FFF7A0FA454A01210120FFF770
:102CBC009BFA3E4A0E210220FFF796FA414A012167
:102CCC000220FFF791FA4FF400413F48FEF73AF823
:102CDC000346002B08D14FF400613B48FEF732F855
:102CEC000346002B02D148E700BF00E000BFFB7990
:102CFC00552B7FF4B4AA2E4B1A882D4B5B881344AA
:102D0C009AB22B4B9B8813449AB2294BDB88134401
:102D1C009AB22E4B1A802D4B1B881A4622492C48EE
:102D2C0000F056FB2B4A01210120FFF75DFA2A4ADD
:102D3C0001210220FFF758FA254A0C210220FFF747
:102D4C0053FA0323BB71FDF753FA0246234B1B685E
:102D5C009A4218D9FDF74CFA02461C4B1B881344B7
:102D6C001E4A13604FF400711748FDF7EBFF034642
:102D7C00002B0CBF01230023DBB21A464FF4007169
:102D8C001148FDF7F6FF4FF480610F48FDF7DAFFAD
:102D9C000346002B3FF463AA0023FB71FFF75FBAD5
:102DAC0018010020EC000020143E00084800002010
:102DBC000C01002018000020280000203800002002
:102DCC00FC3D0008243E000800080140F8000020EB
:102DDC0058000020E83D00082C3E0008F4000020BC
:102DEC0080B582B000AF78607B681B68054A93425F
:102DFC0004D14FF400710448FDF7D3FF00BF08372E
:102E0C00BD4680BD002C01400008014080B594B047
:102E1C0000AF07F1280328220021184600F0D0FA51
:102E2C0007F1140300221A605A609A60DA601A6182
:102E3C003B1D00221A605A609A60DA600123BB6263
:102E4C004FF48033FB6200233B630123BB630223FB
:102E5C007B644FF48033BB644FF4E013FB6407F1E5
:102E6C0028031846FDF7AEFF0346002B01D000F0F7
:102E7C0029F90F237B610223BB610023FB614FF413
:102E8C0080633B6200237B6207F114030221184626
:102E9C00FEF7FCF90346002B01D000F013F90223D6
:102EAC007B604FF40043FB603B1D1846FEF77AFB3A
:102EBC000346002B01D000F005F900BF5037BD468A
:102ECC0080BD000080B584B000AF3B1D00221A60AD
:102EDC005A609A60184B194A1A60174B00229A6074
:102EEC00154B0122DA60144B00225A61124B4FF43D
:102EFC006022DA61104B00225A600F4B01221A61DA
:102F0C000D48FDF7A1F90346002B01D000F0DAF8CB
:102F1C0000237B600123BB600023FB603B1D194633
:102F2C000548FDF723FB0346002B01D000F0CAF83F
:102F3C0000BF1037BD4680BD1801002000240140A1
:102F4C0080B586B000AF07F1080300221A605A6002
:102F5C009A60DA603B4600221A605A601F4B204A86
:102F6C001A601E4B42F62F225A601C4B00229A60AC
:102F7C001A4B42F20F72DA60184B00221A61174B8F
:102F8C0000225A61154B00229A611448FEF7C0FBCF
:102F9C000346002B01D000F095F84FF48053BB6032
:102FAC0007F1080319460D48FEF7FFFC0346002BFA
:102FBC0001D000F087F800233B6000237B603B4688
:102FCC0019460648FEF7FBFE0346002B01D000F025
:102FDC0079F800BF1837BD4680BD00BF48010020FE
:102FEC00002C014080B588B000AF07F1100300221F
:102FFC001A605A609A60DA602F4B9B692E4A43F034
:10300C00100393612C4B9B6903F01003FB60FB686E
:10301C00294B9B69284A43F020039361264B9B69FB
:10302C0003F02003BB60BB68234B9B69224A43F02F
:10303C0004039361204B9B6903F004037B607B6862
:10304C0000224FF400511D48FDF793FE002240F280
:10305C00F6211B48FDF78DFE4FF400533B61012315
:10306C007B610023BB610223FB6107F1100319464E
:10307C001248FDF709FD40F2F6233B6101237B6109
:10308C000023BB610223FB6107F1100319460C48B6
:10309C00FDF7FAFC4FF40C433B6100237B610223E8
:1030AC00BB6107F1100319460548FDF7EDFC00BFA5
:1030BC002037BD4680BD00BF00100240001001400B
:1030CC000008014080B400AF00BFBD4680BC704713
:1030DC0080B485B000AF154B9B69144A43F00103D3
:1030EC009361124B9B6903F00103BB60BB680F4BF0
:1030FC00DB690E4A43F08053D3610C4BDB6903F060
:10310C0080537B607B680A4B5B68FB60FB6823F039
:10311C00E063FB60FB6843F00073FB60044AFB68F0
:10312C00536000BF1437BD4680BC7047001002408E
:10313C000000014080B588B000AF786007F1100343
:10314C0000221A605A609A60DA607B681B68144A25
:10315C00934221D1134B9B69124A43F40073936140
:10316C00104B9B6903F40073FB60FB680D4B9B6970
:10317C000C4A43F0040393610A4B9B6903F004036C
:10318C00BB60BB6801233B6103237B6107F1100328
:10319C0019460548FDF778FC00BF2037BD4680BDB9
:1031AC0000240140001002400008014080B584B0AA
:1031BC0000AF78607B681B680D4A934213D10D4BAE
:1031CC009B690C4A43F4006393610A4B9B6903F4BB
:1031DC000063FB60FB68002200211920FDF71DFC39
:1031EC001920FDF736FC00BF1037BD4680BD00BF6F
:1031FC00002C01400010024080B400AF00BFBD465F
:10320C0080BC704780B400AFFEE780B400AFFEE72F
:10321C0080B400AFFEE780B400AFFEE780B400AF2F
:10322C0000BFBD4680BC704780B400AF00BFBD4638
:10323C0080BC704780B400AF00BFBD4680BC7047F7
:10324C0080B500AFFCF7C2FF00BF80BD80B500AFFA
:10325C000248FEF7A2FA00BF80BD00BF4801002063
:10326C0080B584B000AF7860114B1B68002B02D185
:10327C000F4B104A1A600E4B1B68FB600C4B1A6804
:10328C007B6813446A46934207D900F06FF80246F4
:10329C000C2313604FF0FF3306E0054B1A687B6874
:1032AC001344034A1360FB6818461037BD4680BDB3
:1032BC00FC0000209001002080B400AF154B1B686F
:1032CC00144A43F001031360124B5A681149124B14
:1032DC0013404B600F4B1B680E4A23F0847323F48E
:1032EC00803313600B4B1B680A4A23F48023136052
:1032FC00084B5B68074A23F4FE035360054B4FF4FD
:10330C001F029A60054B4FF000629A6000BFBD46E9
:10331C0080BC7047001002400000FFF800ED00E098
:10332C00002103E00B4B5B58435004310A480B4B14
:10333C0042189A42F6D30A4A02E0002342F8043BB0
:10334C00084B9A42F9D3FFF7B7FF00F015F8FEF7D8
:10335C0061FF70478C3E000800000020D000002068
:10336C00D00000208C010020FEE70000014B186803
:10337C00704700BF6C00002070B500250C4E0D4C42
:10338C00A41BA410A54209D100F034FC00250A4E60
:10339C000A4CA41BA410A54205D170BD56F82530CB
:1033AC0098470135EEE756F8253098470135F2E796
:1033BC00843E0008843E0008843E0008883E0008D5
:1033CC0003460244934200D1704703F8011BF9E70E
:1033DC000EB46FF0004100B59CB01DAB029006908E
:1033EC00079104910848094953F8042B059100688A
:1033FC0002A9019300F066F80022029B1A701CB01F
:10340C005DF804EB03B070476C0000200802FFFF6E
:10341C002DE9F0478E6882469E420C4690469946AE
:10342C0037D88A8912F4906F31D002232568096944
:10343C006F1A656905EB450595FBF3F509F1010379
:10344C003B449D4238BF1D46530530D5294600F0FC
:10345C0037FB064650B90C234FF0FF30CAF800304A
:10346C00A38943F04003A381BDE8F0873A46216964
:10347C0000F0B6FAA38923F4906343F08003A38190
:10348C0026613E4426604E466561ED1BA5604E45A7
:10349C0000D94E4632464146206800F0ACFAA3688B
:1034AC0000209B1BA36023681E442660DCE72A4691
:1034BC0000F060FB06460028E2D12169504600F07E
:1034CC00B3FAC8E72DE9F04F1D468B899DB01F0656
:1034DC0080460C4616460FD50B696BB9402100F09F
:1034EC00EFFA2060206128B90C23C8F800304FF0A7
:1034FC00FF30C8E0402363610023099320238DF83B
:10350C00293030234FF0010B8DF82A3003953746C4
:10351C003D4615F8013B0BB1252B3ED1B7EB060A06
:10352C000BD05346324621464046FFF771FF01301F
:10353C0000F0A480099B534409933B78002B00F0C6
:10354C009D8000234FF0FF32CDE9052304930793B0
:10355C008DF853301A932F46052217F8011B50484B
:10356C0000F030FA049BD0B9D90644BF20228DF864
:10357C0053201A0744BF2B228DF853202A782A2A6D
:10358C0015D02F4600200A25079A394611F8013B21
:10359C00303B092B4DD9B8B10FE02F46B8E7404A64
:1035AC003D46801A0BFA00F018430490D3E7039AB7
:1035BC00111D12680391002A01DB079204E05242AC
:1035CC0043F00203079204933B782E2B0CD17B78AB
:1035DC002A2B33D1039B02371A1D1B680392002B35
:1035EC00B8BF4FF0FF3305932E4D03223978284690
:1035FC0000F0E8F938B14023401B03FA00F0049BBB
:10360C000137034304933978062227487E1C8DF832
:10361C00281000F0D7F9002838D0244B13BB039B9B
:10362C00073323F0070308330393099B4B44099397
:10363C006DE705FB023201200F46A6E700230A25A1
:10364C00194601370593384610F8012B303A092AF0
:10365C0003D9002BC8D00591C6E705FB0121012336
:10366C000746F0E703AB00932246114B04A94046F2
:10367C00AFF30080B0F1FF3F8146D6D1A3895B0642
:10368C003FF535AF09981DB0BDE8F08F03AB009343
:10369C002246074B04A9404600F082F8EAE700BF37
:1036AC00503E0008563E00085A3E0008000000003C
:1036BC001D3400082DE9F04791461F468A680B69B6
:1036CC0006469342B8BF1346C9F8003091F8432020
:1036DC000C46DDF8208012B10133C9F800302368A4
:1036EC00990642BFD9F800300233C9F8003025687A
:1036FC0015F0060507D104F1190AE368D9F8002082
:10370C009B1AAB4229DC94F843302268003318BF73
:10371C00012392062ED404F1430239463046C047A9
:10372C00013021D02368E56803F00603042B18BF91
:10373C000025D9F800204FF0000908BFAD1AA36886
:10374C00226908BF25EAE5759342C4BF9B1AED18A0
:10375C001A344D451AD1002008E00123524639464F
:10376C003046C047013003D14FF0FF30BDE8F08741
:10377C000135C2E73020E11881F843005A1C94F857
:10378C0045102244023382F84310C4E70123224639
:10379C0039463046C0470130E6D009F10109D8E777
:1037AC002DE9F04301F1430C0C46097E85B06E29DE
:1037BC001746064698460C9A00F0B38022D8632927
:1037CC0036D00AD8002900F0B980582900F083803F
:1037DC0004F1420584F8421032E0642901D06929D1
:1037EC00F6D120681368050603F104012AD51B687D
:1037FC001160002B03DA2D225B4284F843206F48C2
:10380C000A2239E0732900F09D8008D86F2920D056
:10381C007029DDD1236843F02003236003E0752970
:10382C0017D07829D4D17823654884F8453055E0F1
:10383C00136804F14205191D1B68116084F84230AD
:10384C0001238CE01B6810F0400F116018BF1BB2F5
:10385C00CFE713682568181D1060280601D51B6872
:10386C0002E06806FBD51B886F2914BF0A220822C8
:10387C005248002184F843106568002DA560C0F201
:10388C009580216821F004012160002B3DD1002D91
:10389C0040F08E806546082A0BD12368DB0708D5DB
:1038AC00236962689A42DEBF302305F8013C05F1BA
:1038BC00FF35ACEB05032361CDF800803B4603AA32
:1038CC0021463046FFF7F6FE01304DD14FF0FF3068
:1038DC0005B0BDE8F083394884F8451013682168B9
:1038EC001D1D1B6815600A060BD5CA0744BF41F0A5
:1038FC00200121601BB9226822F0200222601022D4
:10390C00B7E74D0648BF9BB2EFE76546B3FBF2F154
:10391C0002FB1133C35C05F8013D0B460029F5D1C0
:10392C00B9E713682568181D6169106028061B68C3
:10393C0001D5196002E06A06FBD5198000236546A3
:10394C002361B9E71368191D11601D6862680021B5
:10395C00284600F037F808B1401B606063682361AB
:10396C00002384F84330A7E723692A4639463046BA
:10397C00C0470130AAD023689B0713D4E068039B8F
:10398C009842B8BF1846A3E701234A463946304649
:10399C00C04701309AD00135E368039A9B1AAB42B9
:1039AC00F2DCEBE7002504F11909F5E7002BACD1AB
:1039BC00037804F1420584F842306CE7613E00085C
:1039CC00723E000810B5C9B202449042034601D1C0
:1039DC00002303E01C7801308C42F6D1184610BD50
:1039EC0010B5431E0A44914200D110BD11F8014B91
:1039FC0003F8014FF7E7884210B501EB020307D833
:103A0C00421E99420AD011F8014B02F8014FF8E717
:103A1C008342F5D98118D21AD34200D110BD13F8C4
:103A2C00014D01F8014DF7E738B50546002943D0A3
:103A3C0051F8043C0C1F002BB8BFE41800F0D0F870
:103A4C001E4A1368104633B9636014602846BDE8FB
:103A5C00384000F0C6B8A3420BD9216862189342D3
:103A6C0001BF1A685B685218226063600460EDE75E
:103A7C0013465A680AB1A242FAD919685818A042DA
:103A8C000BD120680144581882421960DED11068AD
:103A9C005268014419605A60D8E702D90C232B6094
:103AAC00D4E7206821188A4201BF116852680918AE
:103ABC00216062605C60C9E738BD00BF0001002076
:103ACC0070B5CD1C25F0030508350C2D38BF0C2521
:103ADC00002D064601DBA94203D90C2333600020DC
:103AEC0070BD00F07DF8214A1468214691B9204C34
:103AFC0023681BB9304600F063F820602946304635
:103B0C0000F05EF8431C24D10C233046336000F0E7
:103B1C0068F8E4E70B685B1B18D40B2B0FD90B6010
:103B2C00CC18CD50304600F05CF804F10B00231D8E
:103B3C0020F00700C31AD3D05A42E250D0E74B68AA
:103B4C008C4216BF636013600C46EBE70C46496869
:103B5C00CCE7C41C24F00304A04205D0211A304643
:103B6C0000F02EF80130CFD02560DBE700010020FB
:103B7C0004010020F8B5074614460E4621B9BDE8ED
:103B8C00F8401146FFF79CBF22B9FFF74DFF2546C1
:103B9C002846F8BD00F026F8A0420FD22146384640
:103BAC00FFF78EFF05460028F2D031462246FFF77C
:103BBC0017FF31463846FFF737FFE9E73546E7E7A9
:103BCC0038B50023054C054608462360FFF748FB33
:103BDC00431C02D1236803B12B6038BD880100203F
:103BEC007047704751F8043C181F002BBCBF0B5892
:103BFC00C0187047F8B500BFF8BC08BC9E467047AB
:0C3C0C00F8B500BFF8BC08BC9E4670472D
:103C180002030405060708090A0B0C0D0E0F101005
:103C28000102000020414C56454D53495320412E76
:103C3800532E20003E312E4C656420417961726913
:103C4800202020200000000020322E41444320691B
:103C58007A6C6520202020200000000020312E4CA6
:103C680065642041796172692020202000000000ED
:103C78003E322E41444320697A6C65202020202062
:103C8800000000003E332E456C20696C65204144DD
:103C9800432020200000000020342E576966692048
:103CA80020202020202020200000000020332E4546
:103CB8006C20696C652041444320202000000000EE
:103CC8003E342E576966692020202020202020209D
:103CD800000000003E352E47656E656C2041796115
:103CE800726C61720000000020362EC4B073696DDA
:103CF8006C657220202020202000000020352E47EF
:103D0800656E656C20417961726C6172000000001B
:103D18003E362EC4B073696D6C6572202020202059
:103D2800200000003E414320202020202020202089
:103D38002020202020000000204B4150415420200A
:103D48002020202020202020200000002041432087
:103D580020202020202020202020202020000000BB
:103D68003E4B41504154202020202020202020205C
:103D7800200000003E4745524920202020202020D6
:103D8800202020202020200020202020202020204B
:103D980020202020202020202020200025752020E1
:103DA800202000003E4144432044656765723A2064
:103DB80020202020000000002047455249202020D4
:103DC8002020202020202020000000002041444303
:103DD8002044656765723A202020202000000000FA
:103DE8003E47455249202020202020202020202006
:103DF8000000000041444320446567657220417912
:103E080061722020000000004F4B20002575000043
:103E18004F4B202D2D3E2020000000004F4B202D21
:103E28002D3E20002020202020202020202020207F
:103E380020202020000000000000000000000000FA
:103E48000102030406070809232D302B2000686CA3
:103E58004C006566674546470030313233343536A5
:103E680037383941424344454600303132333435DE
:0C3E78003637383961626364656600000B
:043E84003101000800
:043E88000D01000820
:103E8C0010000000010000002020000000000000D5
:103E9C0000000000000000002020000000000000D6
:103EAC0000000000000000002020000000000000C6
:103EBC0000000000000000002020000000000000B6
:103ECC0000000000000000002020000000000000A6
:103EDC000000000000000000202000000000000096
:103EEC00000000000000000000A24A047000002046
:103EFC0000000000000000000000000000000000B6
:103F0C0000000000000000000000000000000000A5
:103F1C000000000000000000000000000000000095
:103F2C000000000000000000000000000000000085
:103F3C000000000000000000000000000000000075
:103F4C000000000000000000000000000000000065
:040000050800332D8F
:00000001FF
